:020000040000FA
:10000000A02100208D04000095040000970400004A
:10001000990400009B0400009D0400000000000003
:100020000000000000000000000000009F0400002D
:100030000000000000000000A1040000A304000074
:10004000A5040000A50400007D080000A504000030
:10005000A5040000A504000025050000A50400007B
:10006000A5040000A5040000A5040000A5040000EC
:10007000A5040000A5040000A5040000A5040000DC
:10008000A5040000A5040000A5040000A5040000CC
:10009000A5040000A5040000A5040000A5040000BC
:1000A000A5040000A5040000A5040000A5040000AC
:1000B000A5040000A50400000000000000000000EE
:1000C000A5040000A5040000A5040000A50400008C
:1000D000A5040000A50400000000000000000000CE
:1000E0000000000000000000000000000000000010
:1000F0000000000000000000000000000000000000
:1001000000000000000000000000000000000000EF
:1001100000000000000000000000000000000000DF
:10040000DFF80CD000F07CF800480047D10C000069
:10041000A0210020401E00BF00BF00BF00BF00BFE2
:1004200000BF00BF00BF00BF00BF00BF00BF00BFD4
:1004300000BF00BF00BF00BF00BF00BF00BF00BFC4
:1004400000BF00BF00BF00BF00BF00BF00BF00BFB4
:1004500000BF00BF00BF00BF00BF00BF00BF00BFA4
:1004600000BF00BF00BF00BF00BF00BF00BF00BF94
:1004700000BF00BF00BF00BF00BF00BF00BF00BF84
:1004800000BF00BF00BFC5D17047000006488047CD
:1004900006480047FEE7FEE7FEE7FEE7FEE7FEE769
:1004A000FEE7FEE7FEE70000210600000104000071
:1004B00040EA01039B0703D009E008C9121F08C0E6
:1004C000042AFAD203E011F8013B00F8013B521E66
:1004D000F9D2704730B50B46014600202022012496
:1004E00009E021FA02F59D4205D303FA02F5491B02
:1004F00004FA02F52844151EA2F10102F1DC30BD18
:10050000064C074D06E0E06840F0010394E8070060
:1005100098471034AC42F6D3FFF776FFF41800008A
:10052000141900002DE9F0470025DFF8E890A846EF
:100530004FF4807601242F46304600F0B9FF38B1E1
:10054000D9F80403204203D0304600F0A7FF25432A
:10055000361D64007F1CB6B2082FEDD34FF4BE7475
:10056000204600F0A5FF38B1204600F097FF2A484A
:1005700045F00045D0F80080284E15F0FF0F14D04C
:10058000012700242F420CD009EB8401D1F810057B
:10059000D1F81015C0F3042056F82420C1F301410E
:1005A00090477F00641C082CECD3002D1DDA96F9CF
:1005B0004400401C19D096F8447027F0C00420462F
:1005C00000F04AFB56F82050002D0ED0BE09012144
:1005D000A140A00000F1A040D0F8000711EA080FE8
:1005E000C0F3014003D0022803D0BDE8F087032800
:1005F000FBD1032E05D1022809D00221204600F0AC
:100600003EFF31462046AC46BDE8F0476047032137
:10061000F4E7000000600040100500505401002085
:10062000F0B58C480022041D0378211D081D012609
:10063000062B17D125782D0714D10D78C5F3031596
:10064000032D03D1077817F0F00F0ED0042D03D13E
:10065000077817F0F00F08D0052D03D1057815F0B5
:10066000F00F02D0062B09D014E04FF08055D5F8DA
:100670004452794FC5F342353D6002E025782D079D
:1006800008D10D78C5F30315032D03D1057815F0B6
:10069000F00F02D0062B06D01DE0704D2F6827F01A
:1006A00080772F601AE025782D0714D10D78C5F3D7
:1006B0000315032D03D1077817F0F00F0ED0042D8A
:1006C00003D1077817F0F00F08D0052D03D1057876
:1006D00015F0F00F02D0062B0AD015E04FF0804540
:1006E000C5F80C21C5F810215B4D2D1F2A6002E0D2
:1006F00025782D0708D10D78C5F30315032D03D1F7
:10070000057815F0F00F02D0062B05D066E0524CAC
:1007100003236434236002E023781B075ED1097849
:10072000C1F30311052959D1007810F0F00F55D10C
:100730004B4800684B4908604948001D0068091D86
:100740000860474808300068091D086044480C30BC
:100750000068091D0860424810300068091D0860E3
:100760003F4814300068091D08603D481830006893
:100770003C49203108603A481C300068091D086077
:10078000374820300068091D08603548243000686B
:10079000091D0860324828300068091D086030488B
:1007A0002C300068091D08602D48303000682D4944
:1007B000403108602A4834300068091D0860284824
:1007C00038300068091D086025483C300068091D64
:1007D0000860234840300068091D08601F487438CD
:1007E000016841F470010160BFF34F8FBFF36F8F59
:1007F0004FF01021D1F80002002803DBD1F80002ED
:10080000002822DA184B1E6018480468002CFCD01F
:100810001524C1F800420568002DFCD0C1F804423F
:1008200001680029FCD01A6001680029FCD0BFF3E0
:100830004F8F0A48F03801680D4A01F4E061114316
:100840000160BFF34F8F00BFFDE70B490948086007
:10085000F0BD0000E00F00F03C050040FCED00E0C2
:100860000404001020C5004004E5014000E40140FC
:100870000400FA050090D003040000200348007F24
:1008800008B100F0A3BF00F01DBF0000140100205C
:100890000FB4054B10B503A9044A029800F018F8EC
:1008A00010BC5DF814FB00008F0C0000100000204D
:1008B00002E008C8121F08C1002AFAD17047704729
:1008C000002001E001C1121F002AFBD17047000087
:1008D0002DE9FF4F89B09B460446002506E02528F8
:1008E0000BD05A460B999047641C6D1C2078002849
:1008F000F5D10DB02846BDE8F08F0027B84601229B
:10090000474900E0074314F8013F203B02FA03F097
:100910000842F7D120782E2819D114F8010F47F09A
:1009200004072A280ED06FF02F022078A0F13001A2
:1009300009290CD808EB880102EB410100EB010802
:10094000641CF2E70A98641C50F8048B0A90207823
:100950000028CED0642808D0692806D075281ED07B
:100960005A460B9990476D1C58E00A994FF00A09B6
:1009700001C90A91002802DA40422D2102E039051E
:1009800004D52B218DF82010012103E0F90704D0B4
:100990002021F7E78A4608AE0DE00021FAE70A9920
:1009A0004FF00A0901C90A91F7E74946FFF792FD9E
:1009B000303106F8011D0028F7D1ADEB060000F13B
:1009C0002009780701D44FF00108C84502DDA8EBE3
:1009D000090000E000208046002706E008A85A46EB
:1009E000C05D0B9990476D1C7F1C5745F6DB04E0FA
:1009F00030205A460B9990476D1CB8F10001A8F1C0
:100A00000108F5DC05E016F8010B5A460B999047F2
:100A10006D1CB9F10001A9F10109F4DC641C65E762
:100A200009280100BFF34F8F05480168054A01F40A
:100A3000E06111430160BFF34F8F00BFFDE700008D
:100A40000CED00E00400FA050EB500210091CDE99F
:100A500001106A4644F20100FFF7E4FF10B5826816
:100A6000C368934203D000F0FFF8002010BD0520BA
:100A700010BD29B112B1531E134203D00920704793
:100A80000E2070470160838000218160C1600846AC
:100A9000704710B58268C3689A1A83889A4203D84F
:100AA00000F0ECF8002010BD042010BD70B5044625
:100AB000234888B01E460D00426035D0A8882968BA
:100AC00082B22048FFF7D5FF00282ED1A889A96857
:100AD00082B21C481030FFF7CCFF002825D120221D
:100AE00019496846FFF7E4FCA0680690207900B138
:100AF00001208DF814008DF81C60607900B10E2083
:100B00008DF81500E0780290A0780390207801908D
:100B1000607800900D49684600F0C2FA002804D1C0
:100B20009DF81D0018B104E0072008B070BD00F06A
:100B300047FB03480121801C00F0FCFAF5E70000A8
:100B40000800002034010020D4180000D515000052
:100B500010B50446074801214470401C00F0D6FB44
:100B6000112805D12146BDE810400348FFF791BF89
:100B700010BD000008000020440100202DE9F041D4
:100B80000446006800F071FC2078174F012606FA31
:100B900000F038600021606800F05EFC1348144DDE
:100BA000007FA069C5F82405607D217D0843C5F854
:100BB0006C05D4E90001C5F80C05C5F81415207DB5
:100BC00001280FD10021A06800F046FCE06800F089
:100BD0004CFC207B86403E60D4E90201C5F8081534
:100BE000C5F81005BDE8F08108050050140100208B
:100BF0000020004005494FF0FF32082841F820202E
:100C000002D3084480F83C207047000054010020C3
:100C1000F0B54FF0FF3512B10023082601E008239C
:100C200009260C4C05E000BF54F823707F1C04D04B
:100C30005B1CB342F8D32846F0BD26185DB286F897
:100C4000245044F82310002AF5D1E11881F83C0023
:100C5000F1E70000540100200249084490F9240003
:100C60007047000054010020826883881A4003689E
:100C70009A5C0A708168491C81607047C2688388E9
:100C80001A4003689954C168491CC160704710B587
:100C90000446C0B2FFF75CFF204610BD10B53220FD
:100CA00000F0E8F80D2000F0BDF9002804D0BDE800
:100CB000104002A0FFF7ECBD10BD00000A0D427508
:100CC00074746F6E20507265737365640000000069
:100CD00008B54FF47A7000F0CDF80020012103240C
:100CE00001FA00F212F4F01F04D0820002F1A042D7
:100CF000C2F80047401C2028F2D31D4D4FF4F010DD
:100D000028602F1D00263E6000F0B8FC30B919A005
:100D1000FFF7BEFD4FF4002038602E601EA0FFF7E5
:100D2000B7FD27A0FFF7B4FD00F0B0F940B930A03F
:100D3000FFF7AEFD00F080F9C0B135A0FFF7A8FDC8
:100D40003AA0FFF7A5FD3D483D4A6946006800907E
:100D50008DF801400D2000F009F9014639A0FFF798
:100D600097FD01210D2000F0AFF8FEE73EA0E5E77A
:100D7000080500500A0D5541525420496E697469A6
:100D8000616C697A65642053756363657366756C1D
:100D90006C790A0D000000005374617274696E670B
:100DA00020746F20696E697469616C697A65204787
:100DB00050494F5445206D6F64756C650A0D0000F5
:100DC000436865636B696E67206966204750494FC9
:100DD0005445207761732070726576696F756C7306
:100DE0007920696E697469616C697A65642E2E0078
:100DF00046414C53450A0D20496E697469616C691E
:100E00007A696E67204750494F54452E2E000000E6
:100E10004572726F7220496E697469616C697A6992
:100E20006E67204750494F54450000004275747466
:100E30006F6E732054494D45210A0D00A41800001F
:100E40009D0C00006E72665F6472765F6770696FFA
:100E500074655F696E5F696E69742072657475721E
:100E60006E656420256900005375636365737320A4
:100E70000A0D000031B540F2E73404E0401E009056
:100E80002046FFF7C7FA00980028F7D138BD490778
:100E9000090E002806DA00F00F0202F1E02282F8C3
:100EA000141D03E000F1E02282F8001400F01F029C
:100EB000012191404009800000F1E020C0F880123B
:100EC000C0F80011704700002DE9F04788468146C0
:100ED00000F006FB0124224E0028484618D0FFF7F8
:100EE000BBFE304490F83C008009032802D0012862
:100EF00006D007E01B48006804FA09F4204201D13B
:100F0000022100E003214846BDE8F04700F0B7BAEF
:100F100000F0F2FA002820D04846FFF79DFE054673
:100F2000114F4FF4807007EB850100EB8500D1F87D
:100F3000102580B242F00102C1F8102500F0AEFA8F
:100F4000B8F1000F09D04846FFF786FE56F820009A
:100F5000002802D0AC40C7F80443BDE8F087000089
:100F60005401002010050050006000402DE9FC41B4
:100F7000DFF8A480044608EB0400002790F9240061
:100F80001346C0170E46401C01D0082740E0F278F7
:100F900019462046FFF73CFE0546401C37D0B07886
:100FA00048B1A00000F1A040D0F8001721F00201E4
:100FB000C0F8001707E000217378204600910A4628
:100FC000019100F038FAF078C0B11448317800EBA4
:100FD0008500D0F81025124B1A40C0F810254FF4A8
:100FE000F8524FF4403302EA042203EA01410A4373
:100FF000D0F810150A43C0F8102509E008EB0500E9
:10100000327810F83C1F41EA8211017000E0042799
:101010003846BDE8FC81000054010020006000401B
:10102000FFE0FCFF03490968C14011F0010000D056
:10103000012070471005005070B5124D95F845001D
:1010400008B1082070BD0020411E2A18401CC0B203
:1010500082F824102028F8D300242046FFF7CAFD88
:10106000641CE4B2092CF8D303210620FFF70FFF1C
:1010700005494FF00040C1F80403012085F8450000
:10108000002070BD5401002000600040034890F82B
:101090004500002800D001207047000054010020C6
:1010A0002DE9F0411E4C07460D46E07E10B10820A8
:1010B000BDE8F08107B91B4F787F20773846FFF7EE
:1010C0005DFD6560386920602800174E4FF000050F
:1010D00016D0397F207F48B1C6F81051C6F820518C
:1010E000C6F82451C6F84451104804E0C6F81C5113
:1010F000C6F844510E48C6F804030220FFF7C7FEA5
:10110000207F08B1082000E00420C6F80005E5753E
:101110002576A5750120E076A5760020C8E70000B9
:1011200014010020B4180000002000401003020049
:10113000800002002DE9F0411F4B1C7F3CB14FF4B1
:101140000052B2EB104F02D01020BDE8F081D3F86E
:1011500004C00022194D4FF404764FF40177BCF11E
:10116000000F05D014B1C5F8086301E0C5F8087395
:1011700093F817E0BEF1000F10D01A7E52B1BCF107
:10118000000F05D014B1C5F8046301E0C5F804737D
:101190001120DAE718610122197604E0D9750025DB
:1011A000D8605D761D761CB1BDE8F04100F066B8F0
:1011B000BDE8F04100F014B8140100200020004008
:1011C00010B5064C207F002806D1A07E002803D150
:1011D00000F0C6F90120A07610BD00001401002027
:1011E0002DE9F05F234DA87E104301D100F0B8F93E
:1011F000214C686830B14FF40170C4F8040300203A
:10120000BDE8F09F4FF000094FF4A27AC4F8449172
:101210004FF4927BA8465946204600F051F9054606
:101220004FF48471204600F04BF9074651462046A2
:1012300000F046F9064647EA06012943EBD055EA95
:10124000060007D100F064F998F8171098F8190013
:101250008142E0D888F817900DB10320D0E70EB195
:101260000F20CDE798F81A10012009B12060C6E7D9
:101270006060C4E714010020002000402DE9F05F09
:10128000204C00264FF48873C4F810614FF4A27507
:10129000C4F84461C4F83405C4F838158AB1D4F8E8
:1012A000000240F02000C4F80002DFF85C80D8F8AB
:1012B000040048B14FF40470C4F804030020BDE8F2
:1012C000F09F01202060F0E79A46A9464FF4927BF8
:1012D0005146204600F0FFF805464946204600F0FA
:1012E000FAF807465946204600F0F5F83D43054315
:1012F000EED088F8176008B10320E0E7002FDDD0BA
:101300000F20DCE700200040140100202DE9F04709
:101310001E4D2A7F3AB14FF40053B3EB104F02D069
:101320001020BDE8F087AB7D0BB11120F9E7A9755E
:101330000023A860AB822AB3154C00264FF49072AC
:101340009846C4F820314FF4AC73C4F85881C4F8FF
:101350004405C4F848150120A060686880B9924629
:1013600099465146204600F0B6F8074649462046C1
:1013700000F0B1F80743F4D000B10F2685F81680CD
:101380003046CEE7BDE8F04700F004B81401002075
:10139000002000402DE9F05F1C4F00254FF48E7AAD
:1013A0002E46C7F81C514FF00108C7F8088000F01E
:1013B000E3F8174CB815616879B123E05F465146F0
:1013C000484600F07DF810B9A08AB842F7D1A08A4B
:1013D000B84204D000F0D0F801E08346B946A08AB4
:1013E000A17D8842EAD3A08A584501D10F2508E0A3
:1013F0004F465146384600F063F80028F9D0C7F848
:101400000C80A6752846BDE8F09F00000020004033
:101410001401002030B541EA4201DDE9034541EA0B
:101420008301800041EA042100F1A04041EA054126
:10143000C0F8001730BD30B541EA4201DDE903458F
:1014400041EA8301800041EA042100F1A04041EA21
:101450000541C0F8001730BD1CB500220B460092B4
:1014600011460192FFF7D6FF1CBD1CB5002100916B
:101470000B46012201911146FFF7CCFF1CBD8000F5
:1014800000F5E06000F1A040026822F44032026002
:10149000026842EA0141016070470000034908B553
:1014A0000844002101600068009008BD0060004011
:1014B00002494058012800D00020704700600040D9
:1014C0004058002800D001207047D0F8040308409D
:1014D00000D0012070474058002800D001207047FC
:1014E0000449084490F92400082801DB01207047D2
:1014F00000207047540100200449084490F924005A
:10150000082801D2012070470020704754010020B4
:1015100009480A490022C37DC1F8082143B1D1F826
:101520001815437EC268D154417E491C41767047EC
:10153000D1F8180570470000140100200020004079
:101540001FB501228DF8080004488DF80020019194
:10155000D0E90012684690471FBD0000140100202A
:1015600004480021C0F82411C0F8081101210160CD
:101570007047000000200040064A0020C2F81C010D
:101580000548838A8168C95C838A5B1C8382C2F8B0
:101590001C15704700200040140100201FB50021D9
:1015A0008DF8080005488DF8001082680192817559
:1015B000D0E90012684690471FBD000014010020CA
:1015C0000178022901D0012902D14068FFF73CBA15
:1015D000704700007CB50178264D012909D0022909
:1015E0002CD0002929D129462348FFF737FA80B3A8
:1015F00034E04068017820481038FFF74AFA1E4C62
:10160000103C20B101218DF80010019007E0A06886
:10161000E168081A012805D100208DF800006968EA
:1016200068468847A068E168081AA188884204D8FB
:1016300010480121801CFFF77DFD7CBD02218DF843
:101640000010C06801900B480121801CFFF772FD5B
:101650000CE0FFE701210748FFF758FE06488168C4
:10166000C0688842E9D103208DF8000069686846A7
:1016700088477CBD080000204401002000B50D4AC9
:1016800087B004AB07CA83E807000B48009001202D
:1016900001900A4802904FF4807003900323084A97
:1016A000694604A8FFF702FA08B1FFF7CDF907B0C1
:1016B000002000BDA8180000000000201400002039
:1016C000C11500002DE9FF413E4D4FF40071284641
:1016D000FFF7FBFE01273C4C4FF40178002600B3D6
:1016E0004FF492712846FFF7EBFED0B1C5F82461A4
:1016F000C5F80883A07E00B96F6002208DF8000055
:10170000D5F88004C5F880040390E07D8DF80800CA
:10171000E0680190E6752676D4E9001268469047A5
:1017200024E004212846FFF7D0FEF8B14FF484717D
:101730002846FFF7C5FEC8B1FFF7EAFEE07D617EEF
:10174000884213D1227E3AB1607EE168E275226957
:10175000E2602676667607E0A07E00B96F60C5F885
:101760000883E675607EE168FFF7EAFE4FF48E714C
:101770002846FFF7A5FE58B1A18AA07D814202D27A
:10178000FFF7FAFE04E0C5F81C6108B1FFF706FF99
:101790004FF4A2712846FFF793FE00280FD0C5F83A
:1017A0004461A07E00B12F60E07D002807D0E6757F
:1017B000607EE16804B0BDE8F041FFF7C1BEBDE85E
:1017C000FF81000000200040140100207FB5334C51
:1017D0004FF492712046FFF77EFE314D0026B0B1E6
:1017E000C4F8246102208DF80000D4F88004C4F805
:1017F00080040390D4F83C058DF80800E868019057
:10180000EE752E76D5E90012684690471FE04FF43A
:1018100088712046FFF75FFEC8B1C4F81061D4F8A4
:101820003C05E97DC0B2814211D12A7E5AB1E968F6
:10183000D4F8003223F02003C4F80032EA752A6994
:10184000EA602E7601E0EE75E968FFF779FE4FF465
:10185000A2712046FFF73FFE50B1C4F84461E87D15
:1018600030B1EE75D4F83C05E968C0B2FFF768FE08
:101870004FF490712046FFF72EFE00280CD0C4F8DC
:101880002061A87D002807D0D4F84C0504B0C0B270
:10189000BDE87040FFF782BE7FBD00000020004021
:1018A00014010020030000010806050701000000E4
:1018B00000509D0006000000080000000700000026
:1018C00005000000000000000000000000009D0076
:1018D00003000000060000000800000007000000F0
:1018E00005000000000000000000000000009D0056
:1018F0000300000014190000000000201400000084
:10190000B008000028190000140000208C210000FD
:10191000C0080000000000000090D003000000009C
:081920000000000000000000BF
:0400000500000401F2
:00000001FF
